{
  "abi": [
    {
      "inputs": [],
      "stateMutability": "nonpayable",
      "type": "constructor"
    },
    {
      "anonymous": false,
      "inputs": [
        {
          "indexed": true,
          "internalType": "address",
          "name": "caller",
          "type": "address"
        },
        {
          "indexed": false,
          "internalType": "uint256",
          "name": "maticAmount",
          "type": "uint256"
        },
        {
          "indexed": false,
          "internalType": "uint256",
          "name": "linkAmount",
          "type": "uint256"
        }
      ],
      "name": "SwapCompleted",
      "type": "event"
    },
    {
      "inputs": [],
      "name": "ChainlinkPegSwap",
      "outputs": [
        {
          "internalType": "address",
          "name": "",
          "type": "address"
        }
      ],
      "stateMutability": "view",
      "type": "function"
    },
    {
      "inputs": [],
      "name": "ERC677_Link",
      "outputs": [
        {
          "internalType": "address",
          "name": "",
          "type": "address"
        }
      ],
      "stateMutability": "view",
      "type": "function"
    },
    {
      "inputs": [],
      "name": "MaticLinkSwap",
      "outputs": [
        {
          "internalType": "contract UniV3WmaticLinkSwap",
          "name": "",
          "type": "address"
        }
      ],
      "stateMutability": "view",
      "type": "function"
    },
    {
      "inputs": [],
      "name": "checkLinkPerMatic",
      "outputs": [
        {
          "internalType": "uint256",
          "name": "",
          "type": "uint256"
        }
      ],
      "stateMutability": "view",
      "type": "function"
    },
    {
      "inputs": [],
      "name": "getLatestPrice",
      "outputs": [
        {
          "internalType": "int256",
          "name": "",
          "type": "int256"
        }
      ],
      "stateMutability": "view",
      "type": "function"
    },
    {
      "inputs": [],
      "name": "pegswap",
      "outputs": [
        {
          "internalType": "contract IPegSwap",
          "name": "",
          "type": "address"
        }
      ],
      "stateMutability": "view",
      "type": "function"
    },
    {
      "inputs": [],
      "name": "poolFee",
      "outputs": [
        {
          "internalType": "uint24",
          "name": "",
          "type": "uint24"
        }
      ],
      "stateMutability": "view",
      "type": "function"
    },
    {
      "inputs": [],
      "name": "swap",
      "outputs": [
        {
          "internalType": "uint256",
          "name": "",
          "type": "uint256"
        }
      ],
      "stateMutability": "payable",
      "type": "function"
    },
    {
      "inputs": [],
      "name": "swapRouter",
      "outputs": [
        {
          "internalType": "contract ISwapRouter",
          "name": "",
          "type": "address"
        }
      ],
      "stateMutability": "view",
      "type": "function"
    },
    {
      "inputs": [],
      "name": "wrapAndSwap",
      "outputs": [
        {
          "internalType": "uint256",
          "name": "",
          "type": "uint256"
        }
      ],
      "stateMutability": "payable",
      "type": "function"
    }
  ],
  "bytecode": {
    "object": "0x60c0604052600180546001600160a01b03191673e592427a0aece92de3edee1f18e0157c0586156417905534801561003657600080fd5b50600080546001600160a01b031916735787befdc0ecd210dfa948264631cd53e68f780217905560016002553060a05273aa1dc356dc4b18f30c347798fd5379f3d77abc5b60805260805160a051610e6f6100b16000396000818161015701526104e60152600081816101b301526106870152610e6f6000f3fe6080604052600436106100915760003560e01c8063c31c9c0711610059578063c31c9c071461010d578063e224ea0c14610145578063ec75ba4a14610179578063f009451e146101a1578063f2b1904f146101d557600080fd5b8063073485b714610096578063089fe6aa146100be5780632f065a2b146100e85780638119c065146100f05780638e15f473146100f8575b600080fd5b3480156100a257600080fd5b506100ab6101fd565b6040519081526020015b60405180910390f35b3480156100ca57600080fd5b506100d4610bb881565b60405162ffffff90911681526020016100b5565b6100ab61023c565b6100ab61037c565b34801561010457600080fd5b506100ab610822565b34801561011957600080fd5b5060015461012d906001600160a01b031681565b6040516001600160a01b0390911681526020016100b5565b34801561015157600080fd5b5061012d7f000000000000000000000000000000000000000000000000000000000000000081565b34801561018557600080fd5b5061012d73b0897686c545045afc77cf20ec7a532e3120e0f181565b3480156101ad57600080fd5b5061012d7f000000000000000000000000000000000000000000000000000000000000000081565b3480156101e157600080fd5b5061012d73aa1dc356dc4b18f30c347798fd5379f3d77abc5b81565b60006402540be40061020d610822565b6102179190610c90565b61022990670de0b6b3a7640000610c90565b610237906305f5e100610cb2565b905090565b60003330146102865760405162461bcd60e51b8152602060048201526011602482015270119d5b98dd1a5bdb88191a5cd8589b1959607a1b60448201526064015b60405180910390fd5b730d500b1d8e8ef31e21c99d1db9a6444d3adf12706001600160a01b031663d0e30db0346040518263ffffffff1660e01b81526004016000604051808303818588803b1580156102d557600080fd5b505af11580156102e9573d6000803e3d6000fd5b505060405163a9059cbb60e01b8152336004820152346024820152730d500b1d8e8ef31e21c99d1db9a6444d3adf1270935063a9059cbb925060440190506020604051808303816000875af1158015610346573d6000803e3d6000fd5b505050506040513d601f19601f8201168201806040525081019061036a9190610cc9565b5060006103763461089b565b92915050565b6000610386610a19565b670de0b6b3a76400003410156103f45760405162461bcd60e51b815260206004820152602d60248201527f4d73672e76616c75652068617320746f20626520686967686572207468616e2060448201526c312065746820286d617469632960981b606482015260840161027d565b69152d02c7e14af680000034106104665760405162461bcd60e51b815260206004820152603060248201527f4d73672e76616c75652068617320746f206265206c657373207468616e20313060448201526f303030302065746820286d617469632960801b606482015260840161027d565b60405163095ea7b360e01b8152306004820152346024820152730d500b1d8e8ef31e21c99d1db9a6444d3adf12709063095ea7b3906044016020604051808303816000875af11580156104bd573d6000803e3d6000fd5b505050506040513d601f19601f820116820180604052508101906104e19190610cc9565b5060007f00000000000000000000000000000000000000000000000000000000000000006001600160a01b0316632f065a2b346040518263ffffffff1660e01b815260040160206040518083038185885af1158015610544573d6000803e3d6000fd5b50505050506040513d601f19601f820116820180604052508101906105699190610cf2565b9050600081116105ac5760405162461bcd60e51b815260206004820152600e60248201526d0537761702072657475726e7320360941b604482015260640161027d565b60405163095ea7b360e01b815273aa1dc356dc4b18f30c347798fd5379f3d77abc5b6004820152602481018290527353e0bca35ec356bd5dddfebbd1fc0fd03fabad399063095ea7b3906044016020604051808303816000875af1158015610618573d6000803e3d6000fd5b505050506040513d601f19601f8201168201806040525081019061063c9190610cc9565b50604051632b7f092360e01b8152600481018290527353e0bca35ec356bd5dddfebbd1fc0fd03fabad39602482015273b0897686c545045afc77cf20ec7a532e3120e0f160448201527f00000000000000000000000000000000000000000000000000000000000000006001600160a01b031690632b7f092390606401600060405180830381600087803b1580156106d357600080fd5b505af11580156106e7573d6000803e3d6000fd5b50506040516370a0823160e01b815230600482015273b0897686c545045afc77cf20ec7a532e3120e0f1925063a9059cbb9150339083906370a0823190602401602060405180830381865afa158015610744573d6000803e3d6000fd5b505050506040513d601f19601f820116820180604052508101906107689190610cf2565b6040516001600160e01b031960e085901b1681526001600160a01b03909216600483015260248201526044016020604051808303816000875af11580156107b3573d6000803e3d6000fd5b505050506040513d601f19601f820116820180604052508101906107d79190610cc9565b50604080513481526020810183905233917f68c14902a77c0b779e8d12c5eadac21e74962f4e4efaa8a01582d13b3945ae7f910160405180910390a2905061081f6001600255565b90565b6000805460408051633fabe5a360e21b8152905183926001600160a01b03169163feaf968c9160048083019260a09291908290030181865afa15801561086c573d6000803e3d6000fd5b505050506040513d601f19601f820116820180604052508101906108909190610d2a565b509195945050505050565b60006108bd730d500b1d8e8ef31e21c99d1db9a6444d3adf1270333085610a70565b6001546108e990730d500b1d8e8ef31e21c99d1db9a6444d3adf1270906001600160a01b031684610b7a565b6000670de0b6b3a7640000836108fd6101fd565b6109079190610cb2565b6109119190610c90565b905060006064610922836005610cb2565b61092c9190610c90565b6109369083610d7a565b6040805161010081018252730d500b1d8e8ef31e21c99d1db9a6444d3adf127081527353e0bca35ec356bd5dddfebbd1fc0fd03fabad396020820152610bb88183015233606082015242608082015260a0810187905260c08101839052600060e0820152600154915163414bf38960e01b8152929350916001600160a01b039091169063414bf389906109cd908490600401610d8d565b6020604051808303816000875af11580156109ec573d6000803e3d6000fd5b505050506040513d601f19601f82011682018060405250810190610a109190610cf2565b95945050505050565b6002805403610a6a5760405162461bcd60e51b815260206004820152601f60248201527f5265656e7472616e637947756172643a207265656e7472616e742063616c6c00604482015260640161027d565b60028055565b604080516001600160a01b0385811660248301528481166044830152606480830185905283518084039091018152608490920183526020820180516001600160e01b03166323b872dd60e01b1790529151600092839290881691610ad49190610e0a565b6000604051808303816000865af19150503d8060008114610b11576040519150601f19603f3d011682016040523d82523d6000602084013e610b16565b606091505b5091509150818015610b40575080511580610b40575080806020019051810190610b409190610cc9565b610b725760405162461bcd60e51b815260206004820152600360248201526229aa2360e91b604482015260640161027d565b505050505050565b604080516001600160a01b038481166024830152604480830185905283518084039091018152606490920183526020820180516001600160e01b031663095ea7b360e01b1790529151600092839290871691610bd69190610e0a565b6000604051808303816000865af19150503d8060008114610c13576040519150601f19603f3d011682016040523d82523d6000602084013e610c18565b606091505b5091509150818015610c42575080511580610c42575080806020019051810190610c429190610cc9565b610c735760405162461bcd60e51b8152602060048201526002602482015261534160f01b604482015260640161027d565b5050505050565b634e487b7160e01b600052601160045260246000fd5b600082610cad57634e487b7160e01b600052601260045260246000fd5b500490565b808202811582820484141761037657610376610c7a565b600060208284031215610cdb57600080fd5b81518015158114610ceb57600080fd5b9392505050565b600060208284031215610d0457600080fd5b5051919050565b805169ffffffffffffffffffff81168114610d2557600080fd5b919050565b600080600080600060a08688031215610d4257600080fd5b610d4b86610d0b565b9450602086015193506040860151925060608601519150610d6e60808701610d0b565b90509295509295909350565b8181038181111561037657610376610c7a565b60006101008201905060018060a01b0380845116835280602085015116602084015262ffffff6040850151166040840152806060850151166060840152506080830151608083015260a083015160a083015260c083015160c083015260e0830151610e0360e08401826001600160a01b03169052565b5092915050565b6000825160005b81811015610e2b5760208186018101518583015201610e11565b50600092019182525091905056fea2646970667358221220e50de90acfcab82fdd0870e5b000242da86825246a4ceaec41dbe0774e5c275c64736f6c63430008110033",
    "linkReferences": {}
  },
  "methodIdentifiers": {
    "ChainlinkPegSwap()": "f2b1904f",
    "ERC677_Link()": "ec75ba4a",
    "MaticLinkSwap()": "e224ea0c",
    "checkLinkPerMatic()": "073485b7",
    "getLatestPrice()": "8e15f473",
    "pegswap()": "f009451e",
    "poolFee()": "089fe6aa",
    "swap()": "8119c065",
    "swapRouter()": "c31c9c07",
    "wrapAndSwap()": "2f065a2b"
  },
  "id": 20
}