{
  "abi": [
    {
      "inputs": [
        {
          "internalType": "address",
          "name": "swap",
          "type": "address"
        }
      ],
      "stateMutability": "nonpayable",
      "type": "constructor"
    },
    {
      "inputs": [],
      "name": "_swap",
      "outputs": [
        {
          "internalType": "contract ISwapMaticToLink",
          "name": "",
          "type": "address"
        }
      ],
      "stateMutability": "view",
      "type": "function"
    },
    {
      "inputs": [
        {
          "internalType": "uint256",
          "name": "payableAmount",
          "type": "uint256"
        }
      ],
      "name": "callSwap",
      "outputs": [
        {
          "internalType": "uint256",
          "name": "",
          "type": "uint256"
        }
      ],
      "stateMutability": "nonpayable",
      "type": "function"
    }
  ],
  "bytecode": {
    "object": "0x60a060405234801561001057600080fd5b5060405161022738038061022783398101604081905261002f91610040565b6001600160a01b0316608052610070565b60006020828403121561005257600080fd5b81516001600160a01b038116811461006957600080fd5b9392505050565b608051610197610090600039600081816040015260a501526101976000f3fe608060405234801561001057600080fd5b50600436106100365760003560e01c806330688ab81461003b578063b5682a491461007f575b600080fd5b6100627f000000000000000000000000000000000000000000000000000000000000000081565b6040516001600160a01b0390911681526020015b60405180910390f35b61009261008d36600461012f565b6100a0565b604051908152602001610076565b6000807f00000000000000000000000000000000000000000000000000000000000000006001600160a01b0316638119c065846040518263ffffffff1660e01b815260040160206040518083038185885af1158015610103573d6000803e3d6000fd5b50505050506040513d601f19601f820116820180604052508101906101289190610148565b9392505050565b60006020828403121561014157600080fd5b5035919050565b60006020828403121561015a57600080fd5b505191905056fea2646970667358221220bb12eda1e44c8d490c12d4684b7a943ddced2b0b408033e40cf536caebff5cd864736f6c63430008110033",
    "linkReferences": {}
  },
  "methodIdentifiers": {
    "_swap()": "30688ab8",
    "callSwap(uint256)": "b5682a49"
  },
  "id": 19
}