{
  "abi": [
    {
      "inputs": [],
      "stateMutability": "nonpayable",
      "type": "constructor"
    },
    {
      "inputs": [],
      "name": "checkLinkPerMatic",
      "outputs": [
        {
          "internalType": "uint256",
          "name": "",
          "type": "uint256"
        }
      ],
      "stateMutability": "view",
      "type": "function"
    },
    {
      "inputs": [],
      "name": "getLatestPrice",
      "outputs": [
        {
          "internalType": "int256",
          "name": "",
          "type": "int256"
        }
      ],
      "stateMutability": "view",
      "type": "function"
    },
    {
      "inputs": [],
      "name": "poolFee",
      "outputs": [
        {
          "internalType": "uint24",
          "name": "",
          "type": "uint24"
        }
      ],
      "stateMutability": "view",
      "type": "function"
    },
    {
      "inputs": [],
      "name": "swapRouter",
      "outputs": [
        {
          "internalType": "contract ISwapRouter",
          "name": "",
          "type": "address"
        }
      ],
      "stateMutability": "view",
      "type": "function"
    },
    {
      "inputs": [],
      "name": "wrapAndSwap",
      "outputs": [
        {
          "internalType": "uint256",
          "name": "",
          "type": "uint256"
        }
      ],
      "stateMutability": "payable",
      "type": "function"
    }
  ],
  "bytecode": {
    "object": "0x6080604052600180546001600160a01b03191673e592427a0aece92de3edee1f18e0157c0586156417905534801561003657600080fd5b50600080546001600160a01b031916735787befdc0ecd210dfa948264631cd53e68f780217905561086b8061006c6000396000f3fe60806040526004361061004a5760003560e01c8063073485b71461004f578063089fe6aa146100775780632f065a2b146100a15780638e15f473146100a9578063c31c9c07146100be575b600080fd5b34801561005b57600080fd5b506100646100f6565b6040519081526020015b60405180910390f35b34801561008357600080fd5b5061008d610bb881565b60405162ffffff909116815260200161006e565b610064610135565b3480156100b557600080fd5b50610064610275565b3480156100ca57600080fd5b506001546100de906001600160a01b031681565b6040516001600160a01b03909116815260200161006e565b60006402540be400610106610275565b610110919061068c565b61012290670de0b6b3a764000061068c565b610130906305f5e1006106ae565b905090565b600033301461017f5760405162461bcd60e51b8152602060048201526011602482015270119d5b98dd1a5bdb88191a5cd8589b1959607a1b60448201526064015b60405180910390fd5b730d500b1d8e8ef31e21c99d1db9a6444d3adf12706001600160a01b031663d0e30db0346040518263ffffffff1660e01b81526004016000604051808303818588803b1580156101ce57600080fd5b505af11580156101e2573d6000803e3d6000fd5b505060405163a9059cbb60e01b8152336004820152346024820152730d500b1d8e8ef31e21c99d1db9a6444d3adf1270935063a9059cbb925060440190506020604051808303816000875af115801561023f573d6000803e3d6000fd5b505050506040513d601f19601f8201168201806040525081019061026391906106c5565b50600061026f346102ee565b92915050565b6000805460408051633fabe5a360e21b8152905183926001600160a01b03169163feaf968c9160048083019260a09291908290030181865afa1580156102bf573d6000803e3d6000fd5b505050506040513d601f19601f820116820180604052508101906102e3919061070d565b509195945050505050565b6000610310730d500b1d8e8ef31e21c99d1db9a6444d3adf127033308561046c565b60015461033c90730d500b1d8e8ef31e21c99d1db9a6444d3adf1270906001600160a01b031684610576565b6000670de0b6b3a7640000836103506100f6565b61035a91906106ae565b610364919061068c565b9050600060646103758360056106ae565b61037f919061068c565b610389908361075d565b6040805161010081018252730d500b1d8e8ef31e21c99d1db9a6444d3adf127081527353e0bca35ec356bd5dddfebbd1fc0fd03fabad396020820152610bb88183015233606082015242608082015260a0810187905260c08101839052600060e0820152600154915163414bf38960e01b8152929350916001600160a01b039091169063414bf38990610420908490600401610770565b6020604051808303816000875af115801561043f573d6000803e3d6000fd5b505050506040513d601f19601f8201168201806040525081019061046391906107ed565b95945050505050565b604080516001600160a01b0385811660248301528481166044830152606480830185905283518084039091018152608490920183526020820180516001600160e01b03166323b872dd60e01b17905291516000928392908816916104d09190610806565b6000604051808303816000865af19150503d806000811461050d576040519150601f19603f3d011682016040523d82523d6000602084013e610512565b606091505b509150915081801561053c57508051158061053c57508080602001905181019061053c91906106c5565b61056e5760405162461bcd60e51b815260206004820152600360248201526229aa2360e91b6044820152606401610176565b505050505050565b604080516001600160a01b038481166024830152604480830185905283518084039091018152606490920183526020820180516001600160e01b031663095ea7b360e01b17905291516000928392908716916105d29190610806565b6000604051808303816000865af19150503d806000811461060f576040519150601f19603f3d011682016040523d82523d6000602084013e610614565b606091505b509150915081801561063e57508051158061063e57508080602001905181019061063e91906106c5565b61066f5760405162461bcd60e51b8152602060048201526002602482015261534160f01b6044820152606401610176565b5050505050565b634e487b7160e01b600052601160045260246000fd5b6000826106a957634e487b7160e01b600052601260045260246000fd5b500490565b808202811582820484141761026f5761026f610676565b6000602082840312156106d757600080fd5b815180151581146106e757600080fd5b9392505050565b805169ffffffffffffffffffff8116811461070857600080fd5b919050565b600080600080600060a0868803121561072557600080fd5b61072e866106ee565b9450602086015193506040860151925060608601519150610751608087016106ee565b90509295509295909350565b8181038181111561026f5761026f610676565b60006101008201905060018060a01b0380845116835280602085015116602084015262ffffff6040850151166040840152806060850151166060840152506080830151608083015260a083015160a083015260c083015160c083015260e08301516107e660e08401826001600160a01b03169052565b5092915050565b6000602082840312156107ff57600080fd5b5051919050565b6000825160005b81811015610827576020818601810151858301520161080d565b50600092019182525091905056fea26469706673582212207509e17feb26e5db0ca8319dcee71216f5fc2c1c75ba62eab7e9b69506df668064736f6c63430008110033",
    "linkReferences": {}
  },
  "methodIdentifiers": {
    "checkLinkPerMatic()": "073485b7",
    "getLatestPrice()": "8e15f473",
    "poolFee()": "089fe6aa",
    "swapRouter()": "c31c9c07",
    "wrapAndSwap()": "2f065a2b"
  },
  "id": 21
}