{
  "abi": [
    {
      "inputs": [],
      "stateMutability": "nonpayable",
      "type": "constructor"
    },
    {
      "inputs": [],
      "name": "getLatestPrice",
      "outputs": [
        {
          "internalType": "int256",
          "name": "",
          "type": "int256"
        }
      ],
      "stateMutability": "view",
      "type": "function"
    },
    {
      "inputs": [
        {
          "internalType": "uint256",
          "name": "amountIn",
          "type": "uint256"
        }
      ],
      "name": "mockswapExactInputSingle",
      "outputs": [
        {
          "internalType": "uint256",
          "name": "amountOut",
          "type": "uint256"
        }
      ],
      "stateMutability": "nonpayable",
      "type": "function"
    },
    {
      "inputs": [],
      "name": "poolFee",
      "outputs": [
        {
          "internalType": "uint24",
          "name": "",
          "type": "uint24"
        }
      ],
      "stateMutability": "view",
      "type": "function"
    },
    {
      "inputs": [],
      "name": "swapRouter",
      "outputs": [
        {
          "internalType": "contract ISwapRouter",
          "name": "",
          "type": "address"
        }
      ],
      "stateMutability": "view",
      "type": "function"
    }
  ],
  "bytecode": {
    "object": "0x6080604052600180546001600160a01b03191673e592427a0aece92de3edee1f18e0157c0586156417905534801561003657600080fd5b50600080546001600160a01b031916735787befdc0ecd210dfa948264631cd53e68f78021790556106f68061006c6000396000f3fe608060405234801561001057600080fd5b506004361061004c5760003560e01c8063089fe6aa146100515780638e15f47314610073578063c31c9c0714610089578063dedbb7b2146100b4575b600080fd5b61005a610bb881565b60405162ffffff90911681526020015b60405180910390f35b61007b6100c7565b60405190815260200161006a565b60015461009c906001600160a01b031681565b6040516001600160a01b03909116815260200161006a565b61007b6100c23660046104e2565b610140565b6000805460408051633fabe5a360e21b8152905183926001600160a01b03169163feaf968c9160048083019260a09291908290030181865afa158015610111573d6000803e3d6000fd5b505050506040513d601f19601f82011682018060405250810190610135919061051a565b509195945050505050565b6000610162730d500b1d8e8ef31e21c99d1db9a6444d3adf12703330856102d3565b60015461018e90730d500b1d8e8ef31e21c99d1db9a6444d3adf1270906001600160a01b0316846103e2565b60006101986100c7565b905060006101ab6402540be40083610580565b6101bd90670de0b6b3a7640000610580565b6101cb906305f5e1006105a2565b905060006101da606483610580565b6101e59060036105a2565b6101ef90836105bf565b6040805161010081018252730d500b1d8e8ef31e21c99d1db9a6444d3adf127081527353e0bca35ec356bd5dddfebbd1fc0fd03fabad396020820152610bb88183015233606082015242608082015260a0810188905260c08101839052600060e0820152600154915163414bf38960e01b8152929350916001600160a01b039091169063414bf389906102869084906004016105d2565b6020604051808303816000875af11580156102a5573d6000803e3d6000fd5b505050506040513d601f19601f820116820180604052508101906102c9919061064f565b9695505050505050565b604080516001600160a01b0385811660248301528481166044830152606480830185905283518084039091018152608490920183526020820180516001600160e01b03166323b872dd60e01b17905291516000928392908816916103379190610668565b6000604051808303816000865af19150503d8060008114610374576040519150601f19603f3d011682016040523d82523d6000602084013e610379565b606091505b50915091508180156103a35750805115806103a35750808060200190518101906103a39190610697565b6103da5760405162461bcd60e51b815260206004820152600360248201526229aa2360e91b60448201526064015b60405180910390fd5b505050505050565b604080516001600160a01b038481166024830152604480830185905283518084039091018152606490920183526020820180516001600160e01b031663095ea7b360e01b179052915160009283929087169161043e9190610668565b6000604051808303816000865af19150503d806000811461047b576040519150601f19603f3d011682016040523d82523d6000602084013e610480565b606091505b50915091508180156104aa5750805115806104aa5750808060200190518101906104aa9190610697565b6104db5760405162461bcd60e51b8152602060048201526002602482015261534160f01b60448201526064016103d1565b5050505050565b6000602082840312156104f457600080fd5b5035919050565b805169ffffffffffffffffffff8116811461051557600080fd5b919050565b600080600080600060a0868803121561053257600080fd5b61053b866104fb565b945060208601519350604086015192506060860151915061055e608087016104fb565b90509295509295909350565b634e487b7160e01b600052601160045260246000fd5b60008261059d57634e487b7160e01b600052601260045260246000fd5b500490565b80820281158282048414176105b9576105b961056a565b92915050565b818103818111156105b9576105b961056a565b60006101008201905060018060a01b0380845116835280602085015116602084015262ffffff6040850151166040840152806060850151166060840152506080830151608083015260a083015160a083015260c083015160c083015260e083015161064860e08401826001600160a01b03169052565b5092915050565b60006020828403121561066157600080fd5b5051919050565b6000825160005b81811015610689576020818601810151858301520161066f565b506000920191825250919050565b6000602082840312156106a957600080fd5b815180151581146106b957600080fd5b939250505056fea2646970667358221220f3e4e49a5c2aea119d6c4c68084d11a6f7fa5a36ef62f5244c9814b2260d6ada64736f6c63430008110033",
    "linkReferences": {}
  },
  "methodIdentifiers": {
    "getLatestPrice()": "8e15f473",
    "mockswapExactInputSingle(uint256)": "dedbb7b2",
    "poolFee()": "089fe6aa",
    "swapRouter()": "c31c9c07"
  },
  "id": 21
}