{
  "abi": [
    {
      "inputs": [],
      "stateMutability": "nonpayable",
      "type": "constructor"
    },
    {
      "inputs": [],
      "name": "getLatestPrice",
      "outputs": [
        {
          "internalType": "int256",
          "name": "",
          "type": "int256"
        }
      ],
      "stateMutability": "view",
      "type": "function"
    },
    {
      "inputs": [],
      "name": "poolFee",
      "outputs": [
        {
          "internalType": "uint24",
          "name": "",
          "type": "uint24"
        }
      ],
      "stateMutability": "view",
      "type": "function"
    },
    {
      "inputs": [
        {
          "internalType": "uint256",
          "name": "amountIn",
          "type": "uint256"
        }
      ],
      "name": "swapExactInputSingle",
      "outputs": [
        {
          "internalType": "uint256",
          "name": "amountOut",
          "type": "uint256"
        }
      ],
      "stateMutability": "nonpayable",
      "type": "function"
    },
    {
      "inputs": [],
      "name": "swapRouter",
      "outputs": [
        {
          "internalType": "contract ISwapRouter",
          "name": "",
          "type": "address"
        }
      ],
      "stateMutability": "view",
      "type": "function"
    }
  ],
  "bytecode": {
    "object": "0x6080604052600180546001600160a01b03191673e592427a0aece92de3edee1f18e0157c0586156417905534801561003657600080fd5b50600080546001600160a01b031916735787befdc0ecd210dfa948264631cd53e68f78021790556106f68061006c6000396000f3fe608060405234801561001057600080fd5b506004361061004c5760003560e01c8063089fe6aa1461005157806373bd43ad146100735780638e15f47314610094578063c31c9c071461009c575b600080fd5b61005a610bb881565b60405162ffffff90911681526020015b60405180910390f35b6100866100813660046104e2565b6100c7565b60405190815260200161006a565b61008661025a565b6001546100af906001600160a01b031681565b6040516001600160a01b03909116815260200161006a565b60006100e9730d500b1d8e8ef31e21c99d1db9a6444d3adf12703330856102d3565b60015461011590730d500b1d8e8ef31e21c99d1db9a6444d3adf1270906001600160a01b0316846103e2565b600061011f61025a565b905060006101326402540be40083610511565b61014490670de0b6b3a7640000610511565b610152906305f5e100610533565b90506000610161606483610511565b61016c906003610533565b6101769083610550565b6040805161010081018252730d500b1d8e8ef31e21c99d1db9a6444d3adf127081527353e0bca35ec356bd5dddfebbd1fc0fd03fabad396020820152610bb88183015233606082015242608082015260a0810188905260c08101839052600060e0820152600154915163414bf38960e01b8152929350916001600160a01b039091169063414bf3899061020d908490600401610563565b6020604051808303816000875af115801561022c573d6000803e3d6000fd5b505050506040513d601f19601f8201168201806040525081019061025091906105e0565b9695505050505050565b6000805460408051633fabe5a360e21b8152905183926001600160a01b03169163feaf968c9160048083019260a09291908290030181865afa1580156102a4573d6000803e3d6000fd5b505050506040513d601f19601f820116820180604052508101906102c89190610618565b509195945050505050565b604080516001600160a01b0385811660248301528481166044830152606480830185905283518084039091018152608490920183526020820180516001600160e01b03166323b872dd60e01b17905291516000928392908816916103379190610668565b6000604051808303816000865af19150503d8060008114610374576040519150601f19603f3d011682016040523d82523d6000602084013e610379565b606091505b50915091508180156103a35750805115806103a35750808060200190518101906103a39190610697565b6103da5760405162461bcd60e51b815260206004820152600360248201526229aa2360e91b60448201526064015b60405180910390fd5b505050505050565b604080516001600160a01b038481166024830152604480830185905283518084039091018152606490920183526020820180516001600160e01b031663095ea7b360e01b179052915160009283929087169161043e9190610668565b6000604051808303816000865af19150503d806000811461047b576040519150601f19603f3d011682016040523d82523d6000602084013e610480565b606091505b50915091508180156104aa5750805115806104aa5750808060200190518101906104aa9190610697565b6104db5760405162461bcd60e51b8152602060048201526002602482015261534160f01b60448201526064016103d1565b5050505050565b6000602082840312156104f457600080fd5b5035919050565b634e487b7160e01b600052601160045260246000fd5b60008261052e57634e487b7160e01b600052601260045260246000fd5b500490565b808202811582820484141761054a5761054a6104fb565b92915050565b8181038181111561054a5761054a6104fb565b60006101008201905060018060a01b0380845116835280602085015116602084015262ffffff6040850151166040840152806060850151166060840152506080830151608083015260a083015160a083015260c083015160c083015260e08301516105d960e08401826001600160a01b03169052565b5092915050565b6000602082840312156105f257600080fd5b5051919050565b805169ffffffffffffffffffff8116811461061357600080fd5b919050565b600080600080600060a0868803121561063057600080fd5b610639866105f9565b945060208601519350604086015192506060860151915061065c608087016105f9565b90509295509295909350565b6000825160005b81811015610689576020818601810151858301520161066f565b506000920191825250919050565b6000602082840312156106a957600080fd5b815180151581146106b957600080fd5b939250505056fea26469706673582212200a14be548e03fa8987a770df3549b55fe049b8045247fc00e7dc27266ec79d7764736f6c63430008110033",
    "linkReferences": {}
  },
  "methodIdentifiers": {
    "getLatestPrice()": "8e15f473",
    "poolFee()": "089fe6aa",
    "swapExactInputSingle(uint256)": "73bd43ad",
    "swapRouter()": "c31c9c07"
  },
  "id": 21
}