{
  "abi": [
    {
      "inputs": [],
      "stateMutability": "nonpayable",
      "type": "constructor"
    },
    {
      "anonymous": false,
      "inputs": [
        {
          "indexed": true,
          "internalType": "address",
          "name": "caller",
          "type": "address"
        },
        {
          "indexed": false,
          "internalType": "uint256",
          "name": "maticAmount",
          "type": "uint256"
        },
        {
          "indexed": false,
          "internalType": "uint256",
          "name": "linkAmount",
          "type": "uint256"
        }
      ],
      "name": "SwapCompleted",
      "type": "event"
    },
    {
      "inputs": [],
      "name": "ChainlinkPegSwap",
      "outputs": [
        {
          "internalType": "address",
          "name": "",
          "type": "address"
        }
      ],
      "stateMutability": "view",
      "type": "function"
    },
    {
      "inputs": [],
      "name": "ERC677_Link",
      "outputs": [
        {
          "internalType": "address",
          "name": "",
          "type": "address"
        }
      ],
      "stateMutability": "view",
      "type": "function"
    },
    {
      "inputs": [],
      "name": "checkLinkPerMatic",
      "outputs": [
        {
          "internalType": "uint256",
          "name": "",
          "type": "uint256"
        }
      ],
      "stateMutability": "view",
      "type": "function"
    },
    {
      "inputs": [],
      "name": "getLatestPrice",
      "outputs": [
        {
          "internalType": "int256",
          "name": "",
          "type": "int256"
        }
      ],
      "stateMutability": "view",
      "type": "function"
    },
    {
      "inputs": [],
      "name": "pegswap",
      "outputs": [
        {
          "internalType": "contract IPegSwap",
          "name": "",
          "type": "address"
        }
      ],
      "stateMutability": "view",
      "type": "function"
    },
    {
      "inputs": [],
      "name": "poolFee",
      "outputs": [
        {
          "internalType": "uint24",
          "name": "",
          "type": "uint24"
        }
      ],
      "stateMutability": "view",
      "type": "function"
    },
    {
      "inputs": [],
      "name": "swap",
      "outputs": [
        {
          "internalType": "uint256",
          "name": "",
          "type": "uint256"
        }
      ],
      "stateMutability": "payable",
      "type": "function"
    },
    {
      "inputs": [],
      "name": "swapRouter",
      "outputs": [
        {
          "internalType": "contract ISwapRouter",
          "name": "",
          "type": "address"
        }
      ],
      "stateMutability": "view",
      "type": "function"
    },
    {
      "inputs": [],
      "name": "univ3",
      "outputs": [
        {
          "internalType": "contract SwapWMaticBridgedLinkWithUniswap",
          "name": "",
          "type": "address"
        }
      ],
      "stateMutability": "view",
      "type": "function"
    },
    {
      "inputs": [],
      "name": "wrapAndSwap",
      "outputs": [
        {
          "internalType": "uint256",
          "name": "",
          "type": "uint256"
        }
      ],
      "stateMutability": "payable",
      "type": "function"
    }
  ],
  "bytecode": {
    "object": "0x60a0604052600180546001600160a01b03191673e592427a0aece92de3edee1f18e0157c0586156417905534801561003657600080fd5b50600080546001600160a01b0319908116735787befdc0ecd210dfa948264631cd53e68f7802179091556001600255600380549091163017905573aa1dc356dc4b18f30c347798fd5379f3d77abc5b608052608051610e656100aa6000396000818161019f01526106680152610e656000f3fe6080604052600436106100915760003560e01c80638e15f473116100595780638e15f47314610130578063c31c9c0714610145578063ec75ba4a14610165578063f009451e1461018d578063f2b1904f146101c157600080fd5b8063073485b714610096578063089fe6aa146100be5780630bfd3d73146100e85780632f065a2b146101205780638119c06514610128575b600080fd5b3480156100a257600080fd5b506100ab6101e9565b6040519081526020015b60405180910390f35b3480156100ca57600080fd5b506100d4610bb881565b60405162ffffff90911681526020016100b5565b3480156100f457600080fd5b50600354610108906001600160a01b031681565b6040516001600160a01b0390911681526020016100b5565b6100ab610228565b6100ab610368565b34801561013c57600080fd5b506100ab610803565b34801561015157600080fd5b50600154610108906001600160a01b031681565b34801561017157600080fd5b5061010873b0897686c545045afc77cf20ec7a532e3120e0f181565b34801561019957600080fd5b506101087f000000000000000000000000000000000000000000000000000000000000000081565b3480156101cd57600080fd5b5061010873aa1dc356dc4b18f30c347798fd5379f3d77abc5b81565b60006402540be4006101f9610803565b6102039190610c86565b61021590670de0b6b3a7640000610c86565b610223906305f5e100610ca8565b905090565b60003330146102725760405162461bcd60e51b8152602060048201526011602482015270119d5b98dd1a5bdb88191a5cd8589b1959607a1b60448201526064015b60405180910390fd5b730d500b1d8e8ef31e21c99d1db9a6444d3adf12706001600160a01b031663d0e30db0346040518263ffffffff1660e01b81526004016000604051808303818588803b1580156102c157600080fd5b505af11580156102d5573d6000803e3d6000fd5b505060405163a9059cbb60e01b8152336004820152346024820152730d500b1d8e8ef31e21c99d1db9a6444d3adf1270935063a9059cbb925060440190506020604051808303816000875af1158015610332573d6000803e3d6000fd5b505050506040513d601f19601f820116820180604052508101906103569190610cbf565b5060006103623461087c565b92915050565b6000610372610a0f565b670de0b6b3a76400003410156103e05760405162461bcd60e51b815260206004820152602d60248201527f4d73672e76616c75652068617320746f20626520686967686572207468616e2060448201526c312065746820286d617469632960981b6064820152608401610269565b69152d02c7e14af680000034106104525760405162461bcd60e51b815260206004820152603060248201527f4d73672e76616c75652068617320746f206265206c657373207468616e20313060448201526f303030302065746820286d617469632960801b6064820152608401610269565b60405163095ea7b360e01b8152306004820152346024820152730d500b1d8e8ef31e21c99d1db9a6444d3adf12709063095ea7b3906044016020604051808303816000875af11580156104a9573d6000803e3d6000fd5b505050506040513d601f19601f820116820180604052508101906104cd9190610cbf565b506000600360009054906101000a90046001600160a01b03166001600160a01b0316632f065a2b346040518263ffffffff1660e01b815260040160206040518083038185885af1158015610525573d6000803e3d6000fd5b50505050506040513d601f19601f8201168201806040525081019061054a9190610ce8565b90506000811161058d5760405162461bcd60e51b815260206004820152600e60248201526d0537761702072657475726e7320360941b6044820152606401610269565b60405163095ea7b360e01b815273aa1dc356dc4b18f30c347798fd5379f3d77abc5b6004820152602481018290527353e0bca35ec356bd5dddfebbd1fc0fd03fabad399063095ea7b3906044016020604051808303816000875af11580156105f9573d6000803e3d6000fd5b505050506040513d601f19601f8201168201806040525081019061061d9190610cbf565b50604051632b7f092360e01b8152600481018290527353e0bca35ec356bd5dddfebbd1fc0fd03fabad39602482015273b0897686c545045afc77cf20ec7a532e3120e0f160448201527f00000000000000000000000000000000000000000000000000000000000000006001600160a01b031690632b7f092390606401600060405180830381600087803b1580156106b457600080fd5b505af11580156106c8573d6000803e3d6000fd5b50506040516370a0823160e01b815230600482015273b0897686c545045afc77cf20ec7a532e3120e0f1925063a9059cbb9150339083906370a0823190602401602060405180830381865afa158015610725573d6000803e3d6000fd5b505050506040513d601f19601f820116820180604052508101906107499190610ce8565b6040516001600160e01b031960e085901b1681526001600160a01b03909216600483015260248201526044016020604051808303816000875af1158015610794573d6000803e3d6000fd5b505050506040513d601f19601f820116820180604052508101906107b89190610cbf565b50604080513481526020810183905233917f68c14902a77c0b779e8d12c5eadac21e74962f4e4efaa8a01582d13b3945ae7f910160405180910390a290506108006001600255565b90565b6000805460408051633fabe5a360e21b8152905183926001600160a01b03169163feaf968c9160048083019260a09291908290030181865afa15801561084d573d6000803e3d6000fd5b505050506040513d601f19601f820116820180604052508101906108719190610d20565b509195945050505050565b600061089e730d500b1d8e8ef31e21c99d1db9a6444d3adf1270333085610a66565b6001546108ca90730d500b1d8e8ef31e21c99d1db9a6444d3adf1270906001600160a01b031684610b70565b60006108d4610803565b905060006108e76402540be40083610c86565b6108f990670de0b6b3a7640000610c86565b610907906305f5e100610ca8565b90506000610916606483610c86565b610921906003610ca8565b61092b9083610d70565b6040805161010081018252730d500b1d8e8ef31e21c99d1db9a6444d3adf127081527353e0bca35ec356bd5dddfebbd1fc0fd03fabad396020820152610bb88183015233606082015242608082015260a0810188905260c08101839052600060e0820152600154915163414bf38960e01b8152929350916001600160a01b039091169063414bf389906109c2908490600401610d83565b6020604051808303816000875af11580156109e1573d6000803e3d6000fd5b505050506040513d601f19601f82011682018060405250810190610a059190610ce8565b9695505050505050565b6002805403610a605760405162461bcd60e51b815260206004820152601f60248201527f5265656e7472616e637947756172643a207265656e7472616e742063616c6c006044820152606401610269565b60028055565b604080516001600160a01b0385811660248301528481166044830152606480830185905283518084039091018152608490920183526020820180516001600160e01b03166323b872dd60e01b1790529151600092839290881691610aca9190610e00565b6000604051808303816000865af19150503d8060008114610b07576040519150601f19603f3d011682016040523d82523d6000602084013e610b0c565b606091505b5091509150818015610b36575080511580610b36575080806020019051810190610b369190610cbf565b610b685760405162461bcd60e51b815260206004820152600360248201526229aa2360e91b6044820152606401610269565b505050505050565b604080516001600160a01b038481166024830152604480830185905283518084039091018152606490920183526020820180516001600160e01b031663095ea7b360e01b1790529151600092839290871691610bcc9190610e00565b6000604051808303816000865af19150503d8060008114610c09576040519150601f19603f3d011682016040523d82523d6000602084013e610c0e565b606091505b5091509150818015610c38575080511580610c38575080806020019051810190610c389190610cbf565b610c695760405162461bcd60e51b8152602060048201526002602482015261534160f01b6044820152606401610269565b5050505050565b634e487b7160e01b600052601160045260246000fd5b600082610ca357634e487b7160e01b600052601260045260246000fd5b500490565b808202811582820484141761036257610362610c70565b600060208284031215610cd157600080fd5b81518015158114610ce157600080fd5b9392505050565b600060208284031215610cfa57600080fd5b5051919050565b805169ffffffffffffffffffff81168114610d1b57600080fd5b919050565b600080600080600060a08688031215610d3857600080fd5b610d4186610d01565b9450602086015193506040860151925060608601519150610d6460808701610d01565b90509295509295909350565b8181038181111561036257610362610c70565b60006101008201905060018060a01b0380845116835280602085015116602084015262ffffff6040850151166040840152806060850151166060840152506080830151608083015260a083015160a083015260c083015160c083015260e0830151610df960e08401826001600160a01b03169052565b5092915050565b6000825160005b81811015610e215760208186018101518583015201610e07565b50600092019182525091905056fea264697066735822122090c96713c69e54ece92b3d8749aa533ec0f04a9331af8ce4f75059bacfcea2e164736f6c63430008110033",
    "linkReferences": {}
  },
  "methodIdentifiers": {
    "ChainlinkPegSwap()": "f2b1904f",
    "ERC677_Link()": "ec75ba4a",
    "checkLinkPerMatic()": "073485b7",
    "getLatestPrice()": "8e15f473",
    "pegswap()": "f009451e",
    "poolFee()": "089fe6aa",
    "swap()": "8119c065",
    "swapRouter()": "c31c9c07",
    "univ3()": "0bfd3d73",
    "wrapAndSwap()": "2f065a2b"
  },
  "id": 19
}